{
  "contractName": "PongvalRetriever",
  "abi": [
    {
      "constant": false,
      "inputs": [],
      "name": "getPongvalTransactional",
      "outputs": [
        {
          "name": "",
          "type": "int256"
        }
      ],
      "payable": false,
      "stateMutability": "nonpayable",
      "type": "function"
    }
  ],
  "bytecode": "0x6060604052600080553415601257600080fd5b60c7806100206000396000f300606060405260043610603f576000357c0100000000000000000000000000000000000000000000000000000000900463ffffffff168063fb5d5729146044575b600080fd5b3415604e57600080fd5b6054606a565b6040518082815260200191505060405180910390f35b60007fffffffffffffffffffffffffffffffffffffffffffffffffffffffffffffffff6000819055506000549050905600a165627a7a723058203cf7ed7c146155a2bd786d084f2963d74542285f6ab0a255c96c6914e505869a0029",
  "source": "// Contracts can get non-constant return values from functions in other contracts. (Whereas you can't from web3/geth.)\n// These two contracts are meant to test this. Like so:\n\n// 1. Deploy Pong with a pongval.\n// 2. Deploy Ping, giving it the address of Pong.\n// 3. Call Ping.getPongvalRemote() using a sendTransaction...\n// 4. ... which retreives the value of pongval from Pong.\n// 5. If successful Ping.getPongval() should return the value from step 1.\npragma solidity ^0.4.11;\n\ncontract PongvalRetriever {\n \tint pongval_tx_retrieval_attempted = 0;\n\tfunction getPongvalTransactional() public returns (int){\t// tells Ping how to interact with Pong.\n\t\tpongval_tx_retrieval_attempted = -1;\n\t\treturn pongval_tx_retrieval_attempted;\n\t}\n}\n\ncontract Ping is PongvalRetriever {\n\n \tint pongval;\n\tPongvalRetriever pvr;\n    address creator;\n\n\t/*********\n \t Step 2: Deploy Ping, giving it the address of Pong.\n \t *********/\n    function Ping(PongvalRetriever _pongAddress) \n    {\n        creator = msg.sender; \t\n        pongval = -1;\t\t\t\t\t\t\t\n        pvr = _pongAddress;\n    }\n\n\t/*********\n     Step 3: Transactionally retrieve pongval from Pong. \n     *********/\n\n\tfunction getPongvalRemote() constant returns (int) \n\t{\n\t\tpongval = pvr.getPongvalTransactional();\n\t\treturn pongval;\n\t}\n\t\n\t/*********\n     Step 5: Get pongval (which was previously retrieved from Pong via transaction)\n     *********/\n     \n    function getPongvalConstant() constant returns (int)\n    {\n    \treturn pongval;\n    }\n\t\n  \n// -----------------------------------------------------------------------------------------------------------------\t\n\t\n\t/*********\n     Functions to get and set pongAddress just in case\n     *********/\n    \n    function setPongAddress(PongvalRetriever _pongAddress)\n\t{\n\t\tpvr = _pongAddress;\n\t}\n\t\n\tfunction getPongAddress() constant returns (address)\n\t{\n\t\treturn pvr;\n\t}\n    \n    /****\n\t For double-checking this contract's address\n\t ****/\n\tfunction getAddress() returns (address)\n\t{\n\t\treturn this;\n\t}\n    \n    /*********\n     Standard kill() function to recover funds \n     *********/\n    \n    function kill()\n    { \n        if (msg.sender == creator)\n            suicide(creator);  // kills this contract and sends remaining funds back to creator\n    }\n}\n\n// See Pong for deployment/use. ",
  "sourcePath": "/home/pawe/Music/ethereum/truffle-angular-starter/contracts/Ping.sol",
  "compiler": {
    "name": "solc",
    "version": "0.4.18+commit.9cf6e910.Emscripten.clang"
  },
  "schemaVersion": "1.0.1",
  "updatedAt": "2017-12-02T13:14:26.517Z"
}